:03000000020C559A
:0C0C5500787FE4F6D8FD75813202098931
:100BF00050617373776F7264007965616800662A6B
:070C00002A6B20796F7500DB
:10098900E4F508F509120C327BFF7A0B79F07D0149
:100999007F01120B92E50B450A60FAE4F514F5158F
:1009A900AE08AF097C007D0A120A4D8E088F091224
:1009B9000800AD15ED25E0240CF8760008A607ED32
:1009C90025E0240CF8E6FE08E62509F509EE3508C8
:1009D900F5080515E51570020514C39404E51464BA
:1009E90080948040BBE509B4D2ABE508B404A6E520
:1009F90009B47414E508B4020F7BFF7A0B79F97D09
:100A0900017F01120B9280FE7BFF7A0B79FE7D013B
:070A19007F01120B9280FE29
:100C1D00EF1FAC0670011E4C600A7D0B7CBEDCFE26
:040C2D00DDFC80EC7E
:010C310022A0
:060C4600C2A58F80D2A7B9
:080C4C007F0B7EBEDEFEDFFC23
:010C5400227D
:0A0C6100C2A6120C46C2A7020C4CFA
:100BB500CFCDCFCECCCE120A5F7C007D0A120A5F64
:040BC500ED2430FFEC
:0A0BC900D2A6120C46C2A7020C4C83
:100C0700AE07BE0104ED148006BE0209ED243F4481
:060C170080FF120C6122B7
:100C32007F38120C617F0C120C617F06120C617FEF
:040C420001020C613E
:0A0C6B00AC03120C07AF04020BC922
:060B92008B168A1789187A
:100B9800120C07E4FDAB16AA17A9188D82758300FD
:0C0BA800120A20FF6006120BC90D80E944
:010BB400221E
:0C0B5F007F0AEA24FFFDE434FFFC7E0066
:080B6B008E2F8F308C318D328A
:100B73007F017E00E4FBEBC39532E5316480F874BA
:0E0B83008098500AAC2FAD30120A4D0B80E85E
:010B91002241
:040BD3008A228B23C4
:100BD700120C07AA24EAD39400400D120B5FAC2233
:080BE700AD23120BB51A80EDDD
:010BEF0022E3
:100AB400120C07C3EA64809480400B7F2B120BC98D
:100AC4008A1E8B1F800E7F2D120BC9C3E49BF51F5A
:100AD400E49AF51EAA1DEAD39400400D120B5FACF4
:090AE4001EAD1F120BB51A80EDC6
:010AED0022E6
:040AEE008A278B28A0
:100AF200120C07AA29EAD3940040297F10120B6135
:100B0200AC27AD28CFCDCFCECCCE120A5FEF540F9B
:100B1200FEC3940AEE5004243080022437FF120BE5
:040B2200C91A80D19B
:010B260022AC
:040B27008A2C8B2D5C
:100B2B00120C07AA2EEAD394004028EA24FFFDE416
:100B3B0034FFFC7F027E00120B6BAC2CAD2DCFCDA6
:100B4B00CFCECCCE120A5FEF54012430FF120BC96B
:030B5B001A80D22B
:010B5E002274
:10080000E4F5167590FFC2932097137F14FE120C27
:100810001D3097FD7F147E00120C1D751601209669
:10082000147F147E00120C1D3096FD7F147E001282
:100830000C1D7516052095147F147E00120C1D30BA
:1008400095FD7F147E00120C1D7516092094147FEF
:10085000147E00120C1D3094FD7F147E00120C1DBE
:1008600075160D7590FFC2922097147F147E0012AA
:100870000C1D3097FD7F147E00120C1D7516022092
:1008800096147F147E00120C1D3096FD7F147E009E
:10089000120C1D7516062095147F147E00120C1D77
:1008A0003095FD7F147E00120C1D75160A209414DD
:1008B0007F147E00120C1D3094FD7F147E00120CFC
:1008C0001D75160E7590FFC2912097147F147E003F
:1008D000120C1D3097FD7F147E00120C1D7516033F
:1008E0002096147F147E00120C1D3096FD7F147E1E
:1008F00000120C1D7516072095147F147E00120C33
:100900001D3095FD7F147E00120C1D75160B209472
:10091000147F147E00120C1D3094FD7F147E001293
:100920000C1D75160F7590FFC2902097147F147ED2
:1009300000120C1D3097FD7F147E00120C1D7516E1
:10094000042096147F147E00120C1D3096FD7F1437
:100950007E00120C1D7516082095147F147E00125F
:100960000C1D3095FD7F147E00120C1D75160C2099
:1009700094147F147E00120C1D3094FD7F147E00B1
:08098000120C1D751610AF16D4
:01098800224C
:100A2000BB010CE58229F582E5833AF583E022508B
:100A300006E92582F8E622BBFE06E92582F8E222D5
:0D0A4000E58229F582E5833AF583E49322EF
:100A4D00EF8DF0A4A8F0CF8CF0A428CE8DF0A42EBD
:020A5D00FE2277
:100A5F00BC000BBE0029EF8DF084FFADF022E4CC7B
:100A6F00F875F008EF2FFFEE33FEEC33FCEE9DEC44
:100A7F00984005FCEE9DFE0FD5F0E9E4CEFD22ED8A
:100A8F00F8F5F0EE8420D21CFEADF075F008EF2FD4
:100A9F00FFED33FD4007985006D5F0F222C398FDC5
:050AAF000FD5F0EA2262
:00000001FF
